{
  "contractName": "Quiz",
  "abi": [
    {
      "inputs": [],
      "stateMutability": "nonpayable",
      "type": "constructor"
    },
    {
      "inputs": [
        {
          "internalType": "uint256",
          "name": "",
          "type": "uint256"
        }
      ],
      "name": "questions",
      "outputs": [
        {
          "internalType": "string",
          "name": "question",
          "type": "string"
        },
        {
          "internalType": "string",
          "name": "answer",
          "type": "string"
        }
      ],
      "stateMutability": "view",
      "type": "function"
    }
  ],
  "bytecode": "0x608060405234801561000f575f80fd5b505f6040518060800160405280604051806060016040528060238152602001610ea36023913981526020016040518060400160405280601a81526020017f47656e6572616c20507572706f7365205472616e736973746f7200000000000081525081526020016040518060400160405280601d81526020017f476c6f62616c20506f736974696f6e696e6720546563686e6f6c6f677900000081525081526020016040518060400160405280601981526020017f47696761626974205472616e736665722050726f746f636f6c0000000000000081525081525090505f60405180606001604052806040518060400160405280601881526020017f5768617420646f657320475450205374616e6420666f723f00000000000000008152508152602001838152602001604051806060016040528060238152602001610ea360239139815250908060018154018082558091505060019003905f5260205f2090600602015f909190919091505f820151815f01908161018d9190610a29565b506020820151816001019060046101a5929190610728565b5060408201518160050190816101bb9190610a29565b5050505f60405180608001604052806040518060400160405280600881526020017f536f6c696469747900000000000000000000000000000000000000000000000081525081526020016040518060400160405280600681526020017f507974686f6e000000000000000000000000000000000000000000000000000081525081526020016040518060400160405280600481526020017f4a6176610000000000000000000000000000000000000000000000000000000081525081526020016040518060400160405280600381526020017f432b2b000000000000000000000000000000000000000000000000000000000081525081525090505f60405180606001604052806040518060800160405280604a8152602001610ec6604a913981526020018381526020016040518060400160405280600881526020017f536f6c6964697479000000000000000000000000000000000000000000000000815250815250908060018154018082558091505060019003905f5260205f2090600602015f909190919091505f820151815f0190816103589190610a29565b50602082015181600101906004610370929190610728565b5060408201518160050190816103869190610a29565b5050505f60405180608001604052806040518060400160405280600781526020017f426974636f696e0000000000000000000000000000000000000000000000000081525081526020016040518060400160405280600881526020017f457468657265756d00000000000000000000000000000000000000000000000081525081526020016040518060400160405280600681526020017f526970706c65000000000000000000000000000000000000000000000000000081525081526020016040518060400160405280600881526020017f4c697465636f696e00000000000000000000000000000000000000000000000081525081525090505f60405180606001604052806040518060600160405280602d8152602001610e37602d913981526020018381526020016040518060400160405280600781526020017f426974636f696e00000000000000000000000000000000000000000000000000815250815250908060018154018082558091505060019003905f5260205f2090600602015f909190919091505f820151815f0190816105239190610a29565b5060208201518160010190600461053b929190610728565b5060408201518160050190816105519190610a29565b5050505f60405180608001604052806040518060400160405280600881526020017f457468657265756d00000000000000000000000000000000000000000000000081525081526020016040518060400160405280600781526020017f426974636f696e0000000000000000000000000000000000000000000000000081525081526020016040518060400160405280600681526020017f526970706c65000000000000000000000000000000000000000000000000000081525081526020016040518060400160405280600881526020017f4c697465636f696e00000000000000000000000000000000000000000000000081525081525090505f60405180606001604052806040518060600160405280603f8152602001610e64603f913981526020018381526020016040518060400160405280600881526020017f457468657265756d000000000000000000000000000000000000000000000000815250815250908060018154018082558091505060019003905f5260205f2090600602015f909190919091505f820151815f0190816106ee9190610a29565b50602082015181600101906004610706929190610728565b50604082015181600501908161071c9190610a29565b50505050505050610af8565b8260048101928215610763579160200282015b828111156107625782518290816107529190610a29565b509160200191906001019061073b565b5b5090506107709190610774565b5090565b5b80821115610793575f818161078a9190610797565b50600101610775565b5090565b5080546107a390610853565b5f825580601f106107b457506107d1565b601f0160209004905f5260205f20908101906107d091906107d4565b5b50565b5b808211156107eb575f815f9055506001016107d5565b5090565b5f81519050919050565b7f4e487b71000000000000000000000000000000000000000000000000000000005f52604160045260245ffd5b7f4e487b71000000000000000000000000000000000000000000000000000000005f52602260045260245ffd5b5f600282049050600182168061086a57607f821691505b60208210810361087d5761087c610826565b5b50919050565b5f819050815f5260205f209050919050565b5f6020601f8301049050919050565b5f82821b905092915050565b5f600883026108df7fffffffffffffffffffffffffffffffffffffffffffffffffffffffffffffffff826108a4565b6108e986836108a4565b95508019841693508086168417925050509392505050565b5f819050919050565b5f819050919050565b5f61092d61092861092384610901565b61090a565b610901565b9050919050565b5f819050919050565b61094683610913565b61095a61095282610934565b8484546108b0565b825550505050565b5f90565b61096e610962565b61097981848461093d565b505050565b5b8181101561099c576109915f82610966565b60018101905061097f565b5050565b601f8211156109e1576109b281610883565b6109bb84610895565b810160208510156109ca578190505b6109de6109d685610895565b83018261097e565b50505b505050565b5f82821c905092915050565b5f610a015f19846008026109e6565b1980831691505092915050565b5f610a1983836109f2565b9150826002028217905092915050565b610a32826107ef565b67ffffffffffffffff811115610a4b57610a4a6107f9565b5b610a558254610853565b610a608282856109a0565b5f60209050601f831160018114610a91575f8415610a7f578287015190505b610a898582610a0e565b865550610af0565b601f198416610a9f86610883565b5f5b82811015610ac657848901518255600182019150602085019450602081019050610aa1565b86831015610ae35784890151610adf601f8916826109f2565b8355505b6001600288020188555050505b505050505050565b61033280610b055f395ff3fe608060405234801561000f575f80fd5b5060043610610029575f3560e01c806331b1b9781461002d575b5f80fd5b610047600480360381019061004291906101cf565b61005e565b60405161005592919061026a565b60405180910390f35b5f818154811061006c575f80fd5b905f5260205f2090600602015f91509050805f01805461008b906102cc565b80601f01602080910402602001604051908101604052809291908181526020018280546100b7906102cc565b80156101025780601f106100d957610100808354040283529160200191610102565b820191905f5260205f20905b8154815290600101906020018083116100e557829003601f168201915b505050505090806005018054610117906102cc565b80601f0160208091040260200160405190810160405280929190818152602001828054610143906102cc565b801561018e5780601f106101655761010080835404028352916020019161018e565b820191905f5260205f20905b81548152906001019060200180831161017157829003601f168201915b5050505050905082565b5f80fd5b5f819050919050565b6101ae8161019c565b81146101b8575f80fd5b50565b5f813590506101c9816101a5565b92915050565b5f602082840312156101e4576101e3610198565b5b5f6101f1848285016101bb565b91505092915050565b5f81519050919050565b5f82825260208201905092915050565b8281835e5f83830152505050565b5f601f19601f8301169050919050565b5f61023c826101fa565b6102468185610204565b9350610256818560208601610214565b61025f81610222565b840191505092915050565b5f6040820190508181035f8301526102828185610232565b905081810360208301526102968184610232565b90509392505050565b7f4e487b71000000000000000000000000000000000000000000000000000000005f52602260045260245ffd5b5f60028204905060018216806102e357607f821691505b6020821081036102f6576102f561029f565b5b5091905056fea2646970667358221220fce3b1ddb5fae009baaf10cffa05a20e7a5395cb93a3d99fdb38ee79d7a2f0b164736f6c634300081900335768617420697320746865206e616d65206f66207468652066697273742063727970746f63757272656e63793f57686963682063727970746f63757272656e637920706c6174666f726d20666972737420696e74726f647563656420736d61727420636f6e7472616374733f47656e65726174697665205072652d747261696e696e67205472616e73666f726d657257686174206c616e6775616765206973207573656420746f20777269746520736d61727420636f6e747261637473206f6e2074686520457468657265756d20626c6f636b636861696e3f",
  "immutableReferences": {},
  "source": "import \"@openzeppelin/contracts/token/ERC20/IERC20.sol\";\r\npragma solidity >=0.4.22 <0.9.0;\r\n\r\ncontract Quiz {\r\n    struct Question {\r\n        string question;\r\n        string[4] options;\r\n        string answer;\r\n    }\r\n\r\n    Question[] public questions;\r\n\r\n    constructor() public {\r\n\r\n        // Tech Trends\r\n        string[4] memory options0 = [\"Generative Pre-training Transformer\", \"General Purpose Transistor\", \"Global Positioning Technology\", \"Gigabit Transfer Protocol\"];\r\n        questions.push(Question('What does GTP Stand for?', options0, 'Generative Pre-training Transformer'));\r\n\r\n        string[4] memory options1 = [\"Solidity\", \"Python\", \"Java\", \"C++\"];\r\n        questions.push(Question('What language is used to write smart contracts on the Ethereum blockchain?', options1, 'Solidity'));\r\n\r\n        string[4] memory options2 = [\"Bitcoin\", \"Ethereum\", \"Ripple\", \"Litecoin\"];\r\n        questions.push(Question('What is the name of the first cryptocurrency?', options2, 'Bitcoin'));\r\n\r\n        string[4] memory options3 = [\"Ethereum\", \"Bitcoin\", \"Ripple\", \"Litecoin\"];\r\n        questions.push(Question('Which cryptocurrency platform first introduced smart contracts?', options3, 'Ethereum'));\r\n    }\r\n}",
  "sourcePath": "C:\\Users\\Manelisi Mpotulo\\Documents\\Projects\\devpost-hackathon\\contracts\\GameFunding.sol",
  "compiler": {
    "name": "solc",
    "version": "0.8.25+commit.b61c2a91.Emscripten.clang"
  },
  "schemaVersion": "3.4.16",
  "updatedAt": "2024-04-15T12:40:19.446Z",
  "devdoc": {
    "kind": "dev",
    "methods": {},
    "version": 1
  },
  "userdoc": {
    "kind": "user",
    "methods": {},
    "version": 1
  }
}