{
  "contractName": "Quiz",
  "abi": [
    {
      "inputs": [
        {
          "internalType": "contract IERC20",
          "name": "_token",
          "type": "address"
        }
      ],
      "stateMutability": "nonpayable",
      "type": "constructor"
    },
    {
      "inputs": [
        {
          "internalType": "uint256",
          "name": "",
          "type": "uint256"
        }
      ],
      "name": "questions",
      "outputs": [
        {
          "internalType": "string",
          "name": "question",
          "type": "string"
        },
        {
          "internalType": "string",
          "name": "answer",
          "type": "string"
        }
      ],
      "stateMutability": "view",
      "type": "function"
    },
    {
      "inputs": [],
      "name": "token",
      "outputs": [
        {
          "internalType": "contract IERC20",
          "name": "",
          "type": "address"
        }
      ],
      "stateMutability": "view",
      "type": "function"
    },
    {
      "inputs": [
        {
          "internalType": "uint256",
          "name": "_questionIndex",
          "type": "uint256"
        },
        {
          "internalType": "string",
          "name": "_answer",
          "type": "string"
        }
      ],
      "name": "checkAnswer",
      "outputs": [],
      "stateMutability": "nonpayable",
      "type": "function"
    }
  ],
  "bytecode": "0x608060405234801561000f575f80fd5b506040516119f93803806119f9833981810160405281019061003191906108c0565b8060015f6101000a81548173ffffffffffffffffffffffffffffffffffffffff021916908373ffffffffffffffffffffffffffffffffffffffff1602179055505f604051806080016040528060405180606001604052806023815260200161198c6023913981526020016040518060400160405280601a81526020017f47656e6572616c20507572706f7365205472616e736973746f7200000000000081525081526020016040518060400160405280601d81526020017f476c6f62616c20506f736974696f6e696e6720546563686e6f6c6f677900000081525081526020016040518060400160405280601981526020017f47696761626974205472616e736665722050726f746f636f6c0000000000000081525081525090505f60405180606001604052806040518060400160405280601881526020017f5768617420646f657320475450205374616e6420666f723f0000000000000000815250815260200183815260200160405180606001604052806023815260200161198c60239139815250908060018154018082558091505060019003905f5260205f2090600602015f909190919091505f820151815f0190816101ee9190610b25565b5060208201518160010190600461020692919061078a565b50604082015181600501908161021c9190610b25565b5050505f60405180608001604052806040518060400160405280600881526020017f536f6c696469747900000000000000000000000000000000000000000000000081525081526020016040518060400160405280600681526020017f507974686f6e000000000000000000000000000000000000000000000000000081525081526020016040518060400160405280600481526020017f4a6176610000000000000000000000000000000000000000000000000000000081525081526020016040518060400160405280600381526020017f432b2b000000000000000000000000000000000000000000000000000000000081525081525090505f60405180606001604052806040518060800160405280604a81526020016119af604a913981526020018381526020016040518060400160405280600881526020017f536f6c6964697479000000000000000000000000000000000000000000000000815250815250908060018154018082558091505060019003905f5260205f2090600602015f909190919091505f820151815f0190816103b99190610b25565b506020820151816001019060046103d192919061078a565b5060408201518160050190816103e79190610b25565b5050505f60405180608001604052806040518060400160405280600781526020017f426974636f696e0000000000000000000000000000000000000000000000000081525081526020016040518060400160405280600881526020017f457468657265756d00000000000000000000000000000000000000000000000081525081526020016040518060400160405280600681526020017f526970706c65000000000000000000000000000000000000000000000000000081525081526020016040518060400160405280600881526020017f4c697465636f696e00000000000000000000000000000000000000000000000081525081525090505f60405180606001604052806040518060600160405280602d8152602001611920602d913981526020018381526020016040518060400160405280600781526020017f426974636f696e00000000000000000000000000000000000000000000000000815250815250908060018154018082558091505060019003905f5260205f2090600602015f909190919091505f820151815f0190816105849190610b25565b5060208201518160010190600461059c92919061078a565b5060408201518160050190816105b29190610b25565b5050505f60405180608001604052806040518060400160405280600881526020017f457468657265756d00000000000000000000000000000000000000000000000081525081526020016040518060400160405280600781526020017f426974636f696e0000000000000000000000000000000000000000000000000081525081526020016040518060400160405280600681526020017f526970706c65000000000000000000000000000000000000000000000000000081525081526020016040518060400160405280600881526020017f4c697465636f696e00000000000000000000000000000000000000000000000081525081525090505f60405180606001604052806040518060600160405280603f815260200161194d603f913981526020018381526020016040518060400160405280600881526020017f457468657265756d000000000000000000000000000000000000000000000000815250815250908060018154018082558091505060019003905f5260205f2090600602015f909190919091505f820151815f01908161074f9190610b25565b5060208201518160010190600461076792919061078a565b50604082015181600501908161077d9190610b25565b5050505050505050610bf4565b82600481019282156107c5579160200282015b828111156107c45782518290816107b49190610b25565b509160200191906001019061079d565b5b5090506107d291906107d6565b5090565b5b808211156107f5575f81816107ec91906107f9565b506001016107d7565b5090565b5080546108059061094f565b5f825580601f106108165750610833565b601f0160209004905f5260205f20908101906108329190610836565b5b50565b5b8082111561084d575f815f905550600101610837565b5090565b5f80fd5b5f73ffffffffffffffffffffffffffffffffffffffff82169050919050565b5f61087e82610855565b9050919050565b5f61088f82610874565b9050919050565b61089f81610885565b81146108a9575f80fd5b50565b5f815190506108ba81610896565b92915050565b5f602082840312156108d5576108d4610851565b5b5f6108e2848285016108ac565b91505092915050565b5f81519050919050565b7f4e487b71000000000000000000000000000000000000000000000000000000005f52604160045260245ffd5b7f4e487b71000000000000000000000000000000000000000000000000000000005f52602260045260245ffd5b5f600282049050600182168061096657607f821691505b60208210810361097957610978610922565b5b50919050565b5f819050815f5260205f209050919050565b5f6020601f8301049050919050565b5f82821b905092915050565b5f600883026109db7fffffffffffffffffffffffffffffffffffffffffffffffffffffffffffffffff826109a0565b6109e586836109a0565b95508019841693508086168417925050509392505050565b5f819050919050565b5f819050919050565b5f610a29610a24610a1f846109fd565b610a06565b6109fd565b9050919050565b5f819050919050565b610a4283610a0f565b610a56610a4e82610a30565b8484546109ac565b825550505050565b5f90565b610a6a610a5e565b610a75818484610a39565b505050565b5b81811015610a9857610a8d5f82610a62565b600181019050610a7b565b5050565b601f821115610add57610aae8161097f565b610ab784610991565b81016020851015610ac6578190505b610ada610ad285610991565b830182610a7a565b50505b505050565b5f82821c905092915050565b5f610afd5f1984600802610ae2565b1980831691505092915050565b5f610b158383610aee565b9150826002028217905092915050565b610b2e826108eb565b67ffffffffffffffff811115610b4757610b466108f5565b5b610b51825461094f565b610b5c828285610a9c565b5f60209050601f831160018114610b8d575f8415610b7b578287015190505b610b858582610b0a565b865550610bec565b601f198416610b9b8661097f565b5f5b82811015610bc257848901518255600182019150602085019450602081019050610b9d565b86831015610bdf5784890151610bdb601f891682610aee565b8355505b6001600288020188555050505b505050505050565b610d1f80610c015f395ff3fe608060405234801561000f575f80fd5b506004361061003f575f3560e01c806315f0f7351461004357806331b1b9781461005f578063fc0c546a14610090575b5f80fd5b61005d600480360381019061005891906107f2565b6100ae565b005b6100796004803603810190610074919061084c565b610513565b6040516100879291906108d7565b60405180910390f35b61009861064d565b6040516100a59190610986565b60405180910390f35b5f8054905082106100f4576040517f08c379a00000000000000000000000000000000000000000000000000000000081526004016100eb906109e9565b60405180910390fd5b5f60015f9054906101000a900473ffffffffffffffffffffffffffffffffffffffff1673ffffffffffffffffffffffffffffffffffffffff166370a08231306040518263ffffffff1660e01b815260040161014f9190610a27565b602060405180830381865afa15801561016a573d5f803e3d5ffd5b505050506040513d601f19601f8201168201806040525081019061018e9190610a54565b116101ce576040517f08c379a00000000000000000000000000000000000000000000000000000000081526004016101c590610ac9565b60405180910390fd5b5f8083815481106101e2576101e1610ae7565b5b905f5260205f2090600602016040518060600160405290815f8201805461020890610b41565b80601f016020809104026020016040519081016040528092919081815260200182805461023490610b41565b801561027f5780601f106102565761010080835404028352916020019161027f565b820191905f5260205f20905b81548152906001019060200180831161026257829003601f168201915b5050505050815260200160018201600480602002604051908101604052809291905f905b828210156103445783820180546102b990610b41565b80601f01602080910402602001604051908101604052809291908181526020018280546102e590610b41565b80156103305780601f1061030757610100808354040283529160200191610330565b820191905f5260205f20905b81548152906001019060200180831161031357829003601f168201915b5050505050815260200190600101906102a3565b50505050815260200160058201805461035c90610b41565b80601f016020809104026020016040519081016040528092919081815260200182805461038890610b41565b80156103d35780601f106103aa576101008083540402835291602001916103d3565b820191905f5260205f20905b8154815290600101906020018083116103b657829003601f168201915b5050505050815250509050816040516020016103ef9190610bab565b60405160208183030381529060405280519060200120816040015160405160200161041a9190610bab565b6040516020818303038152906040528051906020012014610470576040517f08c379a000000000000000000000000000000000000000000000000000000000815260040161046790610c0b565b60405180910390fd5b60015f9054906101000a900473ffffffffffffffffffffffffffffffffffffffff1673ffffffffffffffffffffffffffffffffffffffff1663a9059cbb3360016040518363ffffffff1660e01b81526004016104cd929190610c62565b6020604051808303815f875af11580156104e9573d5f803e3d5ffd5b505050506040513d601f19601f8201168201806040525081019061050d9190610cbe565b50505050565b5f8181548110610521575f80fd5b905f5260205f2090600602015f91509050805f01805461054090610b41565b80601f016020809104026020016040519081016040528092919081815260200182805461056c90610b41565b80156105b75780601f1061058e576101008083540402835291602001916105b7565b820191905f5260205f20905b81548152906001019060200180831161059a57829003601f168201915b5050505050908060050180546105cc90610b41565b80601f01602080910402602001604051908101604052809291908181526020018280546105f890610b41565b80156106435780601f1061061a57610100808354040283529160200191610643565b820191905f5260205f20905b81548152906001019060200180831161062657829003601f168201915b5050505050905082565b60015f9054906101000a900473ffffffffffffffffffffffffffffffffffffffff1681565b5f604051905090565b5f80fd5b5f80fd5b5f819050919050565b61069581610683565b811461069f575f80fd5b50565b5f813590506106b08161068c565b92915050565b5f80fd5b5f80fd5b5f601f19601f8301169050919050565b7f4e487b71000000000000000000000000000000000000000000000000000000005f52604160045260245ffd5b610704826106be565b810181811067ffffffffffffffff82111715610723576107226106ce565b5b80604052505050565b5f610735610672565b905061074182826106fb565b919050565b5f67ffffffffffffffff8211156107605761075f6106ce565b5b610769826106be565b9050602081019050919050565b828183375f83830152505050565b5f61079661079184610746565b61072c565b9050828152602081018484840111156107b2576107b16106ba565b5b6107bd848285610776565b509392505050565b5f82601f8301126107d9576107d86106b6565b5b81356107e9848260208601610784565b91505092915050565b5f80604083850312156108085761080761067b565b5b5f610815858286016106a2565b925050602083013567ffffffffffffffff8111156108365761083561067f565b5b610842858286016107c5565b9150509250929050565b5f602082840312156108615761086061067b565b5b5f61086e848285016106a2565b91505092915050565b5f81519050919050565b5f82825260208201905092915050565b8281835e5f83830152505050565b5f6108a982610877565b6108b38185610881565b93506108c3818560208601610891565b6108cc816106be565b840191505092915050565b5f6040820190508181035f8301526108ef818561089f565b90508181036020830152610903818461089f565b90509392505050565b5f73ffffffffffffffffffffffffffffffffffffffff82169050919050565b5f819050919050565b5f61094e6109496109448461090c565b61092b565b61090c565b9050919050565b5f61095f82610934565b9050919050565b5f61097082610955565b9050919050565b61098081610966565b82525050565b5f6020820190506109995f830184610977565b92915050565b7f496e76616c6964207175657374696f6e20696e646578000000000000000000005f82015250565b5f6109d3601683610881565b91506109de8261099f565b602082019050919050565b5f6020820190508181035f830152610a00816109c7565b9050919050565b5f610a118261090c565b9050919050565b610a2181610a07565b82525050565b5f602082019050610a3a5f830184610a18565b92915050565b5f81519050610a4e8161068c565b92915050565b5f60208284031215610a6957610a6861067b565b5b5f610a7684828501610a40565b91505092915050565b7f4e6f20746f6b656e73206c65667420746f2072657761726400000000000000005f82015250565b5f610ab3601883610881565b9150610abe82610a7f565b602082019050919050565b5f6020820190508181035f830152610ae081610aa7565b9050919050565b7f4e487b71000000000000000000000000000000000000000000000000000000005f52603260045260245ffd5b7f4e487b71000000000000000000000000000000000000000000000000000000005f52602260045260245ffd5b5f6002820490506001821680610b5857607f821691505b602082108103610b6b57610b6a610b14565b5b50919050565b5f81905092915050565b5f610b8582610877565b610b8f8185610b71565b9350610b9f818560208601610891565b80840191505092915050565b5f610bb68284610b7b565b915081905092915050565b7f496e636f727265637420616e73776572000000000000000000000000000000005f82015250565b5f610bf5601083610881565b9150610c0082610bc1565b602082019050919050565b5f6020820190508181035f830152610c2281610be9565b9050919050565b5f819050919050565b5f610c4c610c47610c4284610c29565b61092b565b610683565b9050919050565b610c5c81610c32565b82525050565b5f604082019050610c755f830185610a18565b610c826020830184610c53565b9392505050565b5f8115159050919050565b610c9d81610c89565b8114610ca7575f80fd5b50565b5f81519050610cb881610c94565b92915050565b5f60208284031215610cd357610cd261067b565b5b5f610ce084828501610caa565b9150509291505056fea26469706673582212203425d4f2049fb7bf78eafdd9267f8e5037ee2fc304b3074e396f7fc55d77482964736f6c634300081900335768617420697320746865206e616d65206f66207468652066697273742063727970746f63757272656e63793f57686963682063727970746f63757272656e637920706c6174666f726d20666972737420696e74726f647563656420736d61727420636f6e7472616374733f47656e65726174697665205072652d747261696e696e67205472616e73666f726d657257686174206c616e6775616765206973207573656420746f20777269746520736d61727420636f6e747261637473206f6e2074686520457468657265756d20626c6f636b636861696e3f",
  "immutableReferences": {},
  "source": "import \"@openzeppelin/contracts/token/ERC20/IERC20.sol\";\r\npragma solidity >=0.4.22 <0.9.0;\r\n\r\ncontract Quiz {\r\n    struct Question {\r\n        string question;\r\n        string[4] options;\r\n        string answer;\r\n    }\r\n\r\n    Question[] public questions;\r\n    \r\n    IERC20 public token;\r\n\r\n    constructor(IERC20 _token) public {\r\n        token = _token;\r\n\r\n        // Tech Trends\r\n        string[4] memory options0 = [\"Generative Pre-training Transformer\", \"General Purpose Transistor\", \"Global Positioning Technology\", \"Gigabit Transfer Protocol\"];\r\n        questions.push(Question('What does GTP Stand for?', options0, 'Generative Pre-training Transformer'));\r\n\r\n        string[4] memory options1 = [\"Solidity\", \"Python\", \"Java\", \"C++\"];\r\n        questions.push(Question('What language is used to write smart contracts on the Ethereum blockchain?', options1, 'Solidity'));\r\n\r\n        string[4] memory options2 = [\"Bitcoin\", \"Ethereum\", \"Ripple\", \"Litecoin\"];\r\n        questions.push(Question('What is the name of the first cryptocurrency?', options2, 'Bitcoin'));\r\n\r\n        string[4] memory options3 = [\"Ethereum\", \"Bitcoin\", \"Ripple\", \"Litecoin\"];\r\n        questions.push(Question('Which cryptocurrency platform first introduced smart contracts?', options3, 'Ethereum'));\r\n    }\r\n\r\n    function checkAnswer(uint _questionIndex, string memory _answer) public {\r\n        require(_questionIndex < questions.length, \"Invalid question index\");\r\n        require(token.balanceOf(address(this)) > 0, \"No tokens left to reward\");\r\n\r\n        Question memory question = questions[_questionIndex];\r\n        require(keccak256(abi.encodePacked(question.answer)) == keccak256(abi.encodePacked(_answer)), \"Incorrect answer\");\r\n\r\n        // Transfer a token to the caller if the answer is correct\r\n        token.transfer(msg.sender, 1);\r\n    }\r\n}",
  "sourcePath": "C:\\Users\\Manelisi Mpotulo\\Documents\\Projects\\devpost-hackathon\\contracts\\GameFunding.sol",
  "compiler": {
    "name": "solc",
    "version": "0.8.25+commit.b61c2a91.Emscripten.clang"
  },
  "schemaVersion": "3.4.16",
  "updatedAt": "2024-04-15T11:36:19.213Z",
  "devdoc": {
    "kind": "dev",
    "methods": {},
    "version": 1
  },
  "userdoc": {
    "kind": "user",
    "methods": {},
    "version": 1
  }
}